:020000040800F2
:1000000000280020210C0008C50B0008CB0B0008BD
:10001000D10B0008D70B0008DD0B00080000000022
:10002000000000000000000000000000E30B0008DA
:10003000EF0B000800000000FB0B0008070C000895
:10004000690C0008690C0008690C0008690C0008BC
:10005000690C0008690C0008690C0008690C0008AC
:10006000690C0008690C0008690C0008690C00089C
:10007000690C0008690C0008690C0008690C00088C
:10008000690C0008690C0008690C0008690C00087C
:10009000690C0008690C0008690C0008690C00086C
:1000A000690C0008690C0008690C0008690C00085C
:1000B000690C0008690C000800000000690C0008C9
:1000C000690C00080000000000000000690C000836
:1000D00000000000690C0008690C00080000000026
:1000E000690C0008690C0008690C00080000000099
:1000F0000000000000000000000000000000000000
:0C01000000000000000000005FF808F1A3
:10010C0010B5054C237833B9044B13B10448AFF345
:10011C0000800123237010BD0C00002000000000A3
:10012C00AC12000808B5034B1BB103490348AFF3ED
:10013C00008008BD0000000010000020AC12000878
:10014C0080B582B000AF78607B68092B00F2BC816F
:10015C0001A252F823F000BF8D010008E101000854
:10016C003502000889020008DD020008310300088E
:10017C0085030008D90300082D0400088104000839
:10018C0000228021D34801F04FF800224FF48071F7
:10019C00D04801F049F800224FF40071CD4801F02D
:1001AC0043F800224FF48061CA4801F03DF8002268
:1001BC004FF40061C74801F037F800224FF480512A
:1001CC00C44801F031F801224FF40051C14801F04C
:1001DC002BF87AE101228021BE4801F025F800229B
:1001EC004FF48071BB4801F01FF800224FF40071EE
:1001FC00B84801F019F801224FF48061B54801F0BC
:10020C0013F801224FF40061B24801F00DF80122FD
:10021C004FF48051AF4801F007F801224FF4005120
:10022C00AC4801F001F850E100228021A94800F00F
:10023C00FBFF00224FF48071A64800F0F5FF01226D
:10024C004FF40071A34800F0EFFF00224FF48061DF
:10025C00A04800F0E9FF00224FF400619D4800F037
:10026C00E3FF01224FF480519A4800F0DDFF002299
:10027C004FF40051974800F0D7FF26E1002280216F
:10028C00944800F0D1FF00224FF48071914800F0A7
:10029C00CBFF00224FF400718E4800F0C5FF002206
:1002AC004FF480618B4800F0BFFF01224FF40061D6
:1002BC00884800F0B9FF01224FF48051854800F0C6
:1002CC00B3FF00224FF40051824800F0ADFFFCE078
:1002DC00012280217F4800F0A7FF00224FF480719B
:1002EC007C4800F0A1FF00224FF40071794800F027
:1002FC009BFF01224FF48061764800F095FF0122AC
:10030C004FF40061734800F08FFF00224FF48051CE
:10031C00704800F089FF00224FF400516D4800F046
:10032C0083FFD2E0002280216A4800F07DFF012289
:10033C004FF48071674800F077FF00224FF4007192
:10034C00644800F071FF00224FF48061614800F0B6
:10035C006BFF01224FF400615E4800F065FF002244
:10036C004FF480515B4800F05FFF00224FF40051C6
:10037C00584800F059FFA8E000228021554800F0B1
:10038C0053FF01224FF48071524800F04DFF0022C0
:10039C004FF400714F4800F047FF00224FF480618A
:1003AC004C4800F041FF00224FF40061494800F036
:1003BC003BFF00224FF48051464800F035FF0022ED
:1003CC004FF40051434800F02FFF7EE000228021C3
:1003DC00404800F029FF00224FF480713D4800F0A6
:1003EC0023FF00224FF400713A4800F01DFF012258
:1003FC004FF48061374800F017FF01224FF4006181
:10040C00344800F011FF01224FF48051314800F0C4
:10041C000BFF01224FF400512E4800F005FF54E071
:10042C00002280212B4800F0FFFE00224FF4807147
:10043C00284800F0F9FE00224FF40071254800F026
:10044C00F3FE00224FF48061224800F0EDFE002202
:10045C004FF400611F4800F0E7FE00224FF480517A
:10046C001C4800F0E1FE00224FF40051194800F046
:10047C00DBFE2AE000228021164800F0D5FE002287
:10048C004FF48071134800F0CFFE00224FF400713E
:10049C00104800F0C9FE00224FF480610D4800F0B6
:1004AC00C3FE01224FF400610A4800F0BDFE002299
:1004BC004FF48051074800F0B7FE00224FF4005172
:1004CC00044800F0B1FE00E000BF00BF0837BD4695
:1004DC0080BD00BF0008014080B582B000AF7860DD
:1004EC007B68092B00F2808101A252F823F000BF37
:1004FC00250500086D050008B5050008FD05000878
:10050C00450600088D060008D50600081D070008E2
:10051C0065070008AD07000800220121B54800F06E
:10052C0083FE00220221B34800F07EFE002204214B
:10053C00B14800F079FE00220821AE4800F074FEAC
:10054C0000221021AB4800F06FFE00222021A948A8
:10055C0000F06AFE01224021A64800F065FE44E14D
:10056C0001220121A34800F05FFE00220221A148D4
:10057C0000F05AFE002204219E4800F055FE012294
:10058C0008219C4800F050FE01221021994800F0EF
:10059C004BFE01222021974800F046FE012240210B
:1005AC00944800F041FE20E100220121914800F026
:1005BC003BFE002202218F4800F036FE012204216E
:1005CC008C4800F031FE002208218A4800F02CFEF5
:1005DC0000221021874800F027FE012220218548A7
:1005EC0000F022FE00224021824800F01DFEFCE0BB
:1005FC00002201217F4800F017FE002202217D48D5
:10060C0000F012FE002204217A4800F00DFE0022B8
:10061C000821784800F008FE01221021754800F0EE
:10062C0003FE01222021734800F0FEFD0022402130
:10063C00704800F0F9FDD8E0012201216D4800F06E
:10064C00F3FD002202216B4800F0EEFD0022042194
:10065C00684800F0E9FD01220821664800F0E4FD3D
:10066C0001221021634800F0DFFD002220216148A7
:10067C0000F0DAFD002240215E4800F0D5FDB4E028
:10068C00002201215B4800F0CFFD012202215948D4
:10069C0000F0CAFD00220421564800F0C5FD0022DE
:1006AC000821544800F0C0FD01221021514800F0EF
:1006BC00BBFD002220214F4800F0B6FD0022402156
:1006CC004C4800F0B1FD90E000220121494800F0B7
:1006DC00ABFD01220221474800F0A6FD00220421B7
:1006EC00444800F0A1FD00220821424800F09CFD86
:1006FC00002210213F4800F097FD002220213D48A8
:10070C0000F092FD002240213A4800F08DFD6CE093
:10071C0000220121374800F087FD002202213548D4
:10072C0000F082FD00220421324800F07DFD012200
:10073C000821304800F078FD012210212D4800F0EE
:10074C0073FD012220212B4800F06EFD0122402177
:10075C00284800F069FD48E000220121254800F0FE
:10076C0063FD00220221234800F05EFD00220421DB
:10077C00204800F059FD002208211E4800F054FDCD
:10078C00002210211B4800F04FFD002220211948A7
:10079C0000F04AFD00224021164800F045FD24E0FF
:1007AC0000220121134800F03FFD002202211148D4
:1007BC0000F03AFD002204210E4800F035FD002225
:1007CC0008210C4800F030FD01221021094800F0EE
:1007DC002BFD00222021074800F026FD002240219D
:1007EC00044800F021FD00E000BF00BF0837BD4603
:1007FC0080BD00BF000C01400008014080B582B0F4
:10080C0000AF78607B68134A934214BF0123002326
:10081C00DBB21A461021104800F006FD7B680F4A27
:10082C00934214BF01230023DBB21A4620210A484D
:10083C0000F0FAFC7B680A4A934214BF01230023A0
:10084C00DBB21A464021044800F0EEFC00BF08372A
:10085C00BD4680BDC412000800080140C812000843
:10086C00D012000880B582B000AF78607B68134A64
:10087C00934214BF01230023DBB21A460221104815
:10088C0000F0D2FC7B680F4A934214BF0123002373
:10089C00DBB21A4604210A4800F0C6FC7B680A4AFF
:1008AC00934214BF01230023DBB21A4608210448EB
:1008BC0000F0BAFC00BF0837BD4680BDC41200086A
:1008CC0000080140C8120008D012000880B582B0A0
:1008DC0000AF78607868FFF733FC00BF0837BD467F
:1008EC0080BD80B582B000AF78607868FFF7F4FD0A
:1008FC0000BF0837BD4680BD80B58AB000AF00F0A0
:10090C00AFF900F0C7F800237B624FF448733B62E9
:10091C000023FB614FF4FA73BB6108237B61052351
:10092C003B610323FB600823BB6005237B6003232F
:10093C003B607B6A022B35D07B6A022B48DC7B6ADE
:10094C00002B03D07B6A012B16D041E04D48FFF7FA
:10095C0055FF3B6A002B04DC01237B624FF4FA73D6
:10096C003B623B6A484A82FB03125211DB17D31AD3
:10097C001846FFF7ABFF2BE04448FFF73FFF3B6AFD
:10098C00002B04DC02237B624FF496733B623B6AC0
:10099C003D4A82FB03125211DB17D31A1846FFF79C
:1009AC0095FF15E03A48FFF729FF3B6A002B04DC62
:1009BC0000237B624FF448733B623B6A324A82FBF2
:1009CC0003125211DB17D31A1846FFF77FFF00BF33
:1009DC00FB69022B35D0FB69022B48DCFB69002B31
:1009EC0003D0FB69012B16D041E02848FFF73AFFF2
:1009FC00BB69002B04DC0123FB614FF49673BB61D4
:100A0C00BB69214A82FB03125211DB17D31A184619
:100A1C00FFF767FF2BE01E48FFF724FFBB69002B95
:100A2C0004DC0223FB614FF44873BB61BB69164ABB
:100A3C0082FB03125211DB17D31A1846FFF751FF32
:100A4C0015E01048FFF70EFFBB69002B04DC0023F8
:100A5C00FB614FF4FA73BB61BB690B4A82FB031257
:100A6C005211DB17D31A1846FFF73BFF00BF3B6A46
:100A7C00013B3B62BB69013BBB610A2000F052F9B0
:100A8C0057E700BFC41200081F85EB51D0120008B5
:100A9C00C812000880B586B000AF07F10803002229
:100AAC001A605A609A60DA60274B9B69264A43F0B9
:100ABC0004039361244B9B6903F004037B607B6804
:100ACC00214B9B69204A43F0080393611E4B9B69A1
:100ADC0003F008033B603B68002243F6FE711B48A1
:100AEC0000F0A2FB00227721194800F09DFB43F691
:100AFC00FE73BB600123FB6000233B6102237B611F
:100B0C0007F108031946114800F014FA7723BB606B
:100B1C000123FB6000233B6102237B6107F1080387
:100B2C0019460B4800F006FA0823BB600023FB6053
:100B3C0000233B6107F108031946054800F0FAF958
:100B4C0000BF1837BD4680BD0010024000080140B0
:100B5C00000C014080B485B000AF154B9B69144A62
:100B6C0043F001039361124B9B6903F00103BB60DB
:100B7C00BB680F4BDB690E4A43F08053D3610C4BBF
:100B8C00DB6903F080537B607B680A4B5B68FB601E
:100B9C00FB6823F0E063FB60FB6843F08063FB6061
:100BAC00044AFB68536000BF1437BD4680BC7047D5
:100BBC00001002400000014080B400AFFEE780B49A
:100BCC0000AFFEE780B400AFFEE780B400AFFEE7F5
:100BDC0080B400AFFEE780B400AF00BFBD4680BC60
:100BEC00704780B400AF00BFBD4680BC704780B476
:100BFC0000AF00BFBD4680BC704780B500AF00F0B1
:100C0C0075F800BF80BD80B400AF00BFBD4680BC8E
:100C1C0070470000FFF7F7FF0B480C490C4A002304
:100C2C0002E0D458C4500433C4188C42F9D3094A96
:100C3C00094C002301E013600432A242FBD300F004
:100C4C000BFBFFF759FE7047000000200C00002042
:100C5C00E01200080C0000202C000020FEE7000031
:100C6C0080B500AF084B1B68074A43F010031360B4
:100C7C00032000F02BF90F2000F008F8FFF76AFFB3
:100C8C000023184680BD00BF0020024080B582B012
:100C9C0000AF7860124B1A68124B1B7819464FF450
:100CAC007A73B3FBF1F3B2FBF3F3184600F035F9AA
:100CBC000346002B01D001230EE07B680F2B0AD8D2
:100CCC00002279684FF0FF3000F00BF9064A7B6880
:100CDC001360002300E0012318460837BD4680BD91
:100CEC0000000020080000200400002080B400AFA9
:100CFC00054B1B781A46054B1B681344034A1360BB
:100D0C0000BFBD4680BC70470800002028000020B2
:100D1C0080B400AF024B1B681846BD4680BC7047C0
:100D2C002800002080B584B000AF7860FFF7F0FF9A
:100D3C00B8607B68FB60FB68B3F1FF3F05D00A4BE2
:100D4C001B781A46FB681344FB6000BFFFF7E0FFFB
:100D5C000246BB68D31AFA689A42F7D800BF00BFA4
:100D6C001037BD4680BD00BF0800002080B485B0A0
:100D7C0000AF78607B6803F00703FB600C4BDB680B
:100D8C00BB60BA684FF6FF031340BB60FB681A02E6
:100D9C00BB68134343F0BF6343F40033BB60044AA6
:100DAC00BB68D36000BF1437BD4680BC704700BF22
:100DBC0000ED00E080B400AF044BDB681B0A03F0CD
:100DCC0007031846BD4680BC704700BF00ED00E02D
:100DDC0080B483B000AF03463960FB7197F90730DC
:100DEC00002B0ADB3B68DAB20C4997F90730120189
:100DFC00D2B20B4483F800230AE03B68DAB208490C
:100E0C00FB7903F00F03043B1201D2B20B441A76A8
:100E1C0000BF0C37BD4680BC704700BF00E100E04E
:100E2C0000ED00E080B489B000AFF860B9607A6082
:100E3C00FB6803F00703FB61FB69C3F10703042B99
:100E4C0028BF0423BB61FB690433062B02D9FB6961
:100E5C00033B00E000237B614FF0FF32BB6902FAD9
:100E6C0003F3DA43BB681A407B699A404FF0FF31B9
:100E7C007B6901FA03F3D9437B680B401343184693
:100E8C002437BD4680BC704780B582B000AF786017
:100E9C007B68013BB3F1807F01D301230FE00A4A49
:100EAC007B68013B53600F214FF0FF30FFF790FF41
:100EBC00054B00229A60044B07221A600023184647
:100ECC000837BD4680BD00BF10E000E080B582B0A1
:100EDC0000AF78607868FFF749FF00BF0837BD4660
:100EEC0080BD80B586B000AF0346B9607A60FB73F5
:100EFC0000237B61FFF75EFF78617A68B9687869D7
:100F0C00FFF790FF024697F90F3011461846FFF78E
:100F1C005FFF00BF1837BD4680BD80B582B000AF03
:100F2C0078607868FFF7B0FF034618460837BD466F
:100F3C0080BD000080B48BB000AF786039600023B6
:100F4C007B6200233B6248E101227B6A02FA03F3D5
:100F5C00FB613B681B68FA691340BB61BA69FB69AA
:100F6C009A4240F037813B685B68A34A93425ED05B
:100F7C00A14A934275D8A14A934258D09F4A9342B2
:100F8C006FD89F4A934252D09D4A934269D89D4A4A
:100F9C0093424CD09B4A934263D89B4A934246D08F
:100FAC00994A93425DD8122B2AD8122B59D801A2F8
:100FBC0052F823F03B100008151000082710000809
:100FCC00691000086F1000086F1000086F100008FF
:100FDC006F1000086F1000086F1000086F100008E9
:100FEC006F1000086F1000086F1000086F100008D9
:100FFC006F1000086F1000081D1000083110000859
:10100C00824A934213D02CE03B68DB683B6229E0B8
:10101C003B68DB6804333B6224E03B68DB680833E5
:10102C003B621FE03B68DB680C333B621AE03B68B9
:10103C009B68002B02D104233B6213E03B689B6846
:10104C00012B05D108233B627B68FA691A6109E020
:10105C0008233B627B68FA695A6103E000233B6218
:10106C0000E000BFBB69FF2B01D87B6801E07B6807
:10107C0004337B61BB69FF2B02D87B6A9B0002E0C7
:10108C007B6A083B9B003B617B691A680F213B69BB
:10109C0001FA03F3DB431A40396A3B6901FA03F3A3
:1010AC001A437B691A603B685B6803F08053002B22
:1010BC0000F09080564B9B69554A43F001039361B5
:1010CC00534B9B6903F00103BB60BB68514A7B6ABD
:1010DC009B08023352F82330FB607B6A03F0030356
:1010EC009B000F2202FA03F3DB43FA681340FB6008
:1010FC007B68494A93420DD07B68484A934207D09B
:10110C007B68474A934201D1022304E0032302E0A7
:10111C00012300E000237A6A02F00302920093405C
:10112C00FA681343FB603B497B6A9B080233FA68FD
:10113C0041F823203B685B6803F48013002B06D036
:10114C00384B9A683749BB6913438B6006E0354BC3
:10115C009A68BB69DB43334913408B603B685B681F
:10116C0003F40013002B06D02E4BDA682D49BB6913
:10117C001343CB6006E02B4BDA68BB69DB43294990
:10118C001340CB603B685B6803F40033002B06D044
:10119C00244B5A682349BB6913434B6006E0214B2F
:1011AC005A68BB69DB431F4913404B603B685B6863
:1011BC0003F48033002B06D01A4B1A681949BB690B
:1011CC0013430B6006E0174B1A68BB69DB431549E8
:1011DC0013400B607B6A01337B623B681A687B6A45
:1011EC0022FA03F3002B7FF4AFAE00BF00BF2C3705
:1011FC00BD4680BC704700BF0000321000003110AB
:10120C00000022100000211000001210000011102C
:10121C00001002400000014000080140000C014099
:10122C00001001400004014080B483B000AF78602E
:10123C000B467B8013467B707B78002B03D07A881F
:10124C007B681A6103E07B881A047B681A6100BF13
:10125C000C37BD4680BC704770B500260C4D0D4C4C
:10126C00641BA410A64209D100F01AF800260A4DFE
:10127C000A4C641BA410A64205D170BD55F8043B62
:10128C0098470136EEE755F8043B98470136F2E7EC
:10129C00D8120008D8120008D8120008DC12000876
:1012AC00F8B500BFF8BC08BC9E467047F8B500BF47
:0812BC00F8BC08BC9E46704717
:1012C4005245440059454C4C4F5700004752454540
:0412D4004E000000C8
:0412D80031010008D8
:0412DC000D010008F8
:0C12E00000127A00100000000100000065
:0400000508000C21C2
:00000001FF
